:100000000C942A000C9447000C9447000C94470071
:100010000C9447000C9447000C9447000C94470044
:100020000C9447000C9447000C9447000C948C19D6
:100030000C9447000C9447000C9447000C94470024
:100040000C9447000C9447000C9447000C94470014
:100050000C94470011241FBECFE5D4E0DEBFCDBF16
:1000600011E0A0E6B0E0EAEEFFE302C005900D92D9
:10007000AC3AB107D9F711E0ACEAB1E001C01D928A
:10008000AC3BB107E1F70E948D1D0C94F31F0C945B
:100090000000EF92FF920F931F937B018C0120E0F1
:1000A00030E040E05FE40E94F50388238CF0C80153
:1000B000B70120E030E040E05FE40E94C1010E940F
:1000C00055049B01AC01205030404040504806C0D0
:1000D000C801B7010E9455049B01AC01B901CA01D6
:1000E0001F910F91FF90EF900895A0E0B0E0EBE733
:1000F000F0E00C94BC1FDC012B01FA019C919230C2
:1001000008F439C1EB018881823008F433C194309E
:1001100069F4843009F02FC111969C91119789815F
:10012000981709F428C1A4EAB0E025C1843009F485
:1001300021C18230A9F4923009F01DC19A01AD01AC
:1001400088E0EA010990AE01E90109929E0181501F
:10015000C1F7E201898111969C918923818308C1AD
:10016000923009F407C112962D903C901397EB0141
:100170008A819B811496AD90BD90CD90DC901797AD
:10018000EC80FD800E811F819101281B390BB90184
:1001900037FF04C066277727621B730B6032710537
:1001A0000CF061C0121613066CF537014801062EDB
:1001B00004C096948794779467940A94D2F721E0C8
:1001C00030E040E050E004C0220F331F441F551FB1
:1001D0006A95D2F721503040404050402E213F21B7
:1001E00040235123211531054105510521F021E01E
:1001F00030E040E050E079018A01E628F72808293C
:1002000019293CC0232BD1F1260E371E350146019A
:10021000062E04C096948794779467940A94D2F734
:1002200021E030E040E050E004C0220F331F441FC3
:10023000551F6A95D2F721503040404050402A2146
:100240003B214C215D21211531054105510521F04E
:1002500021E030E040E050E059016A01A628B728CB
:10026000C828D9280BC0821593052CF01C01AA249C
:10027000BB24650103C0EE24FF24870111969C91E5
:10028000D20111968C91981709F445C0992339F041
:10029000A80197012A193B094C095D0906C0A6016E
:1002A00095012E193F09400B510B57FD08C01182D3
:1002B0003382228224833583468357831DC081E0A5
:1002C00081833382228288279927DC01821B930B4A
:1002D000A40BB50B84839583A683B7830DC0220F2F
:1002E000331F441F551F24833583468357838281E0
:1002F000938101979383828324813581468157813D
:10030000DA01C9010197A109B1098F5F9F4FAF4F72
:10031000BF4328F30BC0918333822282EA0CFB1C7B
:100320000C1D1D1DE482F5820683178383E0808304
:10033000248135814681578157FF1AC0C901AA27F8
:1003400097FDA095BA2F81709070A070B0705695EF
:10035000479537952795822B932BA42BB52B848318
:100360009583A683B7838281938101969383828349
:10037000DF0101C0D201CD01CDB7DEB7E2E10C94BF
:10038000D81FA0E2B0E0E7ECF1E00C94C81F69834D
:100390007A838B839C832D833E834F835887E9E048
:1003A000EE2EF12CEC0EFD1ECE010196B7010E943F
:1003B00046068E010F5E1F4FCE010596B8010E94C2
:1003C00046068A8991E089278A8BC701B801AE0168
:1003D000475E5F4F0E9475000E947105A096E6E09F
:1003E0000C94E41FA0E2B0E0E8EFF1E00C94C81F29
:1003F00069837A838B839C832D833E834F835887C5
:10040000F9E0EF2EF12CEC0EFD1ECE010196B701A6
:100410000E9446068E010F5E1F4FCE010596B80161
:100420000E944606C701B801AE01475E5F4F0E94B9
:1004300075000E947105A096E6E00C94E41FA0E20E
:10044000B0E0E5E2F2E00C94BC1F69837A838B8311
:100450009C832D833E834F835887CE010196BE0136
:10046000675F7F4F0E944606CE010596BE016F5E14
:100470007F4F0E9446069985923088F089898230A4
:10048000C8F0943019F4823051F404C0843029F457
:10049000923081F484EA90E0C6C0923049F420E0C2
:1004A0009A858A89981321E02A87CE010996BBC0D4
:1004B000823049F420E09A858A89981321E02A8BBA
:1004C000CE014196B0C02D843E844F8458886D88FB
:1004D0007E888F88988CEE24FF248701AA24BB2471
:1004E000650140E050E060E070E0E0E0F0E0C10174
:1004F00081709070892BE9F0E60CF71C081D191D1E
:100500009A01AB012A0D3B1D4C1D5D1D80E090E062
:10051000A0E0B0E0E614F7040805190520F481E036
:1005200090E0A0E0B0E0BA01A901480F591F6A1F8E
:100530007B1FAA0CBB1CCC1CDD1C97FE08C081E0F5
:1005400090E0A0E0B0E0A82AB92ACA2ADB2A3196B6
:10055000E032F10549F0660C771C881C991C569412
:10056000479437942794C3CFFA85EA892B893C892D
:100570008B859C85280F391F2E5F3F4F17C0CA01FE
:1005800081709070892B61F016950795F794E79428
:1005900080E090E0A0E0B0E8E82AF92A0A2B1B2BC3
:1005A00076956795579547952F5F3F4F77FDE7CF36
:1005B0000CC0440F551F661F771F17FD4160EE0CDE
:1005C000FF1C001F111F21503040403090E05907A0
:1005D00090E0690790E4790760F32B8F3C8FDB0193
:1005E000CA018F779070A070B07080349105A1051A
:1005F000B10561F447FD0AC0E114F10401051105DC
:1006000029F0405C5F4F6F4F7F4F40781A8EFE1786
:1006100011F081E08A8F4D8F5E8F6F8F78A383E01A
:10062000898FCE0149960E947105A096E2E10C9453
:10063000D81FA8E1B0E0EFE1F3E00C94C41F698398
:100640007A838B839C832D833E834F835887B9E0C5
:10065000EB2EF12CEC0EFD1ECE010196B7010E948F
:1006600046068E010F5E1F4FCE010596B8010E940F
:1006700046062985223008F47EC03989323010F4CC
:10068000B8017CC08A859A8989278A87243011F02D
:10069000223031F4231709F06EC064EA70E06EC0B6
:1006A000343039F41D861E861F86188A1C861B86E8
:1006B00004C0323021F484E08987B7015FC02B8504
:1006C0003C858B899C89281B390B3C872B87ED84C3
:1006D000FE840F851889AD88BE88CF88D88CEA142F
:1006E000FB040C051D0540F4EE0CFF1C001F111F40
:1006F000215030403C872B8720E030E040E050E044
:1007000080E090E0A0E0B0E460E070E0EA14FB0478
:100710000C051D0540F0282B392B4A2B5B2BEA18C2
:10072000FB080C091D09B695A79597958795EE0CC2
:10073000FF1C001F111F6F5F7F4F6F31710531F775
:10074000DA01C9018F779070A070B0708034910584
:10075000A105B10561F427FD0AC0E114F10401050A
:10076000110529F0205C3F4F4F4F5F4F20782D87B8
:100770003E874F87588BBE01675F7F4FCB010E943A
:1007800071056896EAE00C94E01FA8E1B0E0EBEC9C
:10079000F3E00C94C81F69837A838B839C832D8339
:1007A0003E834F83588789E0E82EF12CEC0EFD1E26
:1007B000CE010196B7010E9446068E010F5E1F4FC3
:1007C000CE010596B8010E9446068985823040F028
:1007D0008989823028F0C701B8010E94BE0601C095
:1007E0008FEF6896E6E00C94E41FA8E1B0E0EBEF31
:1007F000F3E00C94C81F69837A838B839C832D83D9
:100800003E834F83588789E0E82EF12CEC0EFD1EC5
:10081000CE010196B7010E9446068E010F5E1F4F62
:10082000CE010596B8010E9446068985823040F0C7
:100830008989823028F0C701B8010E94BE0601C034
:100840008FEF6896E6E00C94E41FA8E1B0E0EBE2DD
:10085000F4E00C94C81F69837A838B839C832D8377
:100860003E834F83588789E0E82EF12CEC0EFD1E65
:10087000CE010196B7010E9446068E010F5E1F4F02
:10088000CE010596B8010E9446068985823040F067
:100890008989823028F0C701B8010E94BE0601C0D4
:1008A00081E06896E6E00C94E41FACE0B0E0EBE594
:1008B000F4E00C94CC1F69837A838B839C83CE01F4
:1008C0000196BE016B5F7F4F0E9446068D8182308C
:1008D00061F1823050F1843021F48E81882351F10E
:1008E0002EC02F81388537FD20C06E812F31310514
:1008F0001CF06623F9F023C08EE190E0821B930B7D
:1009000029853A854B855C8504C056954795379572
:1009100027958A95D2F76623B1F05095409530958A
:1009200021953F4F4F4F5F4F0EC020E030E040E039
:1009300050E009C02FEF3FEF4FEF5FE704C020E02A
:1009400030E040E050E8B901CA012C96E2E00C9496
:10095000E81FA8E0B0E0EFEAF4E00C94C41F7B01CC
:100960008C01611571058105910519F482E0898377
:1009700060C083E089838EE1C82ED12CDC82CB82DB
:10098000ED82FE820F831887C801B7010E942205FD
:10099000FC013197F7FF3BC0222733272E1B3F0B6B
:1009A00057016801022E04C0D694C794B794A79447
:1009B0000A94D2F740E050E060E070E081E090E01F
:1009C000A0E0B0E004C0880F991FAA1FBB1F2A95A2
:1009D000D2F70197A109B1098E219F21A023B1234C
:1009E0000097A105B10521F041E050E060E070E022
:1009F0004A295B296C297D294D835E836F83788723
:100A00008EE190E08E1B9F0B9C838B8312C03097EE
:100A100081F00E2E04C0EE0CFF1C001F111F0A9463
:100A2000D2F7ED82FE820F831887CE1ADF0ADC82AE
:100A3000CB821A82CE0101960E9471052896EAE0C7
:100A40000C94E01FEF92FF920F931F937B018C0198
:100A500080E0E81680E0F80681E0080780E01807EB
:100A600088F48FEFE816F1040105110531F028F044
:100A700088E090E0A0E0B0E017C080E090E0A0E067
:100A8000B0E012C080E0E81680E0F80680E00807D9
:100A900081E0180728F088E190E0A0E0B0E004C011
:100AA00080E190E0A0E0B0E020E230E040E050E003
:100AB000281B390B4A0B5B0B04C016950795F7945E
:100AC000E7948A95D2F7F701E455FF4F8081281B00
:100AD000310941095109C9011F910F91FF90EF9010
:100AE0000895DF92EF92FF920F931F93FC01E48031
:100AF000F58006811781D1808081823048F480E0C2
:100B000090E0A0E1B0E0E82AF92A0A2B1B2BA5C04F
:100B1000843009F49FC0823021F4EE24FF24870141
:100B200005C0E114F1040105110519F4E0E0F0E05D
:100B300096C0628173819FEF623879070CF05BC0C9
:100B400022E83FEF261B370B2A3131052CF020E03D
:100B500030E040E050E02AC0B801A701022E04C0F6
:100B600076956795579547950A94D2F781E090E07E
:100B7000A0E0B0E004C0880F991FAA1FBB1F2A95F0
:100B8000D2F70197A109B1098E219F21A023B1239A
:100B90000097A105B10521F081E090E0A0E0B0E070
:100BA0009A01AB01282B392B4A2B5B2BDA01C901A7
:100BB0008F779070A070B07080349105A105B10559
:100BC00039F427FF09C0205C3F4F4F4F5F4F04C0EF
:100BD000215C3F4F4F4F5F4FE0E0F0E02030A0E05E
:100BE0003A07A0E04A07A0E45A0710F0E1E0F0E07D
:100BF00079018A0127C06038710564F5FB01E1586D
:100C0000FF4FD801C7018F779070A070B07080340B
:100C10009105A105B10539F4E7FE0DC080E490E02F
:100C2000A0E0B0E004C08FE390E0A0E0B0E0E80E08
:100C3000F91E0A1F1B1F17FF05C016950795F7948D
:100C4000E794319687E016950795F794E7948A958F
:100C5000D1F705C0EE24FF248701EFEFF0E06E2FFF
:100C6000679566276795902F9F77D794DD24D79453
:100C70008E2F8695492F462B582F5D29B701CA0123
:100C80001F910F91FF90EF90DF900895FC01DB0121
:100C9000408151812281622F6F7770E0221F2227CD
:100CA000221F9381892F880F822B282F30E0991FD4
:100CB0009927991F11969C93119721153105A9F534
:100CC000411551056105710511F482E037C082E8D4
:100CD0009FEF13969C938E9312979A01AB0167E056
:100CE000220F331F441F551F6A95D1F783E08C9361
:100CF0000DC0220F331F441F551F12968D919C91DA
:100D00001397019713969C938E931297203080E04F
:100D1000380780E0480780E4580758F314962D936D
:100D20003D934D935C93179708952F3F310579F4C8
:100D3000411551056105710519F484E08C930895FE
:100D400064FF03C081E08C9312C01C9210C02F5727
:100D5000304013963C932E93129783E08C9387E058
:100D6000440F551F661F771F8A95D1F7706414963C
:100D70004D935D936D937C93179708951F93DC01BA
:100D8000FB019C91923008F447C08081823008F4C6
:100D900043C0943051F411961C91843099F58181AF
:100DA000682F70E0611B71093FC0843021F09230E0
:100DB00031F48230B9F18181882389F12DC01196F7
:100DC0001C9111978230F1F081811817D9F4129695
:100DD0002D913C911397828193818217930794F010
:100DE00028173907BCF014968D919D910D90BC91F8
:100DF000A02D2481358146815781281739074A075C
:100E00005B0718F4112341F00AC082179307A40767
:100E1000B50740F4112319F061E070E005C06FEFF1
:100E20007FEF02C060E070E0CB011F910895DF9377
:100E3000CF93CDB7DEB7EAE3F0E08FEF8083E7E34F
:100E4000F0E08FEF8083E4E3F0E08FEF8083E1E375
:100E5000F0E08FEF8083EBE3F0E01082E8E3F0E076
:100E60001082E5E3F0E01082E2E3F0E01082CF913F
:100E7000DF910895DF93CF93CDB7DEB728970FB6F4
:100E8000F894DEBF0FBECDBF8A836B834C8385E0B1
:100E900089838B81883008F0F4C08C81882309F025
:100EA00077C08A81282F30E038872F838F819885FB
:100EB0008130910559F12F813885223031052CF48C
:100EC0008F819885009769F060C02F813885223026
:100ED000310589F18F8198858330910509F440C0EF
:100EE00054C0AAE3B0E0EAE3F0E08081482F8B81B0
:100EF000282F30E081E090E0022E02C0880F991F79
:100F00000A94E2F7809584238C93BCC0A7E3B0E0F9
:100F1000E7E3F0E08081482F8B81282F30E081E0EB
:100F200090E0022E02C0880F991F0A94E2F7809584
:100F300084238C93A7C0A4E3B0E0E4E3F0E08081D5
:100F4000482F8B81282F30E081E090E0022E02C0F4
:100F5000880F991F0A94E2F7809584238C9392C09E
:100F6000A1E3B0E0E1E3F0E08081482F8B81282FFE
:100F700030E081E090E0022E02C0880F991F0A94B1
:100F8000E2F7809584238C937DC081E089837AC0C9
:100F90008C81813009F072C08A81282F30E03E8335
:100FA0002D838D819E818130910549F12D813E8176
:100FB000223031052CF48D819E81009761F05BC059
:100FC0002D813E812230310571F18D819E818330EA
:100FD0009105E9F150C0AAE3B0E0EAE3F0E08081D6
:100FE000482F8B81282F30E081E090E0022E02C054
:100FF000880F991F0A94E2F7842B8C9343C0A7E3D0
:10100000B0E0E7E3F0E08081482F8B81282F30E0CB
:1010100081E090E0022E02C0880F991F0A94E2F747
:10102000842B8C932FC0A4E3B0E0E4E3F0E0808154
:10103000482F8B81282F30E081E090E0022E02C003
:10104000880F991F0A94E2F7842B8C931BC0A1E3AD
:10105000B0E0E1E3F0E08081482F8B81282F30E081
:1010600081E090E0022E02C0880F991F0A94E2F7F7
:10107000842B8C9307C081E0898304C082E089833C
:1010800001C01982898128960FB6F894DEBF0FBE81
:10109000CDBFCF91DF910895DF93CF93CDB7DEB76A
:1010A00028970FB6F894DEBF0FBECDBF8A836B833F
:1010B0004C8385E089838B81883008F0F4C08C8173
:1010C000882309F077C08A81282F30E038872F8362
:1010D0008F8198858130910559F12F813885223093
:1010E00031052CF48F819885009769F060C02F81BD
:1010F00038852230310589F18F81988583309105BB
:1011000009F440C054C0ABE3B0E0EBE3F0E0808111
:10111000482F8B81282F30E081E090E0022E02C022
:10112000880F991F0A94E2F7809584238C93BCC0A2
:10113000A8E3B0E0E8E3F0E08081482F8B81282F1E
:1011400030E081E090E0022E02C0880F991F0A94DF
:10115000E2F7809584238C93A7C0A5E3B0E0E5E394
:10116000F0E08081482F8B81282F30E081E090E0F3
:10117000022E02C0880F991F0A94E2F780958423FB
:101180008C9392C0A2E3B0E0E2E3F0E08081482FCC
:101190008B81282F30E081E090E0022E02C0880F82
:1011A000991F0A94E2F7809584238C937DC081E097
:1011B00089837AC08C81813009F072C08A81282F9E
:1011C00030E03E832D838D819E818130910549F1F0
:1011D0002D813E81223031052CF48D819E81009736
:1011E00061F05BC02D813E812230310571F18D812E
:1011F0009E8183309105E9F150C0ABE3B0E0EBE3B1
:10120000F0E08081482F8B81282F30E081E090E052
:10121000022E02C0880F991F0A94E2F7842B8C9348
:1012200043C0A8E3B0E0E8E3F0E08081482F8B8181
:10123000282F30E081E090E0022E02C0880F991F35
:101240000A94E2F7842B8C932FC0A5E3B0E0E5E38A
:10125000F0E08081482F8B81282F30E081E090E002
:10126000022E02C0880F991F0A94E2F7842B8C93F8
:101270001BC0A2E3B0E0E2E3F0E08081482F8B8165
:10128000282F30E081E090E0022E02C0880F991FE5
:101290000A94E2F7842B8C9307C081E0898304C011
:1012A00083E0898301C01982898128960FB6F8945A
:1012B000DEBF0FBECDBFCF91DF910895DF93CF93F7
:1012C000CDB7DEB727970FB6F894DEBF0FBECDBF00
:1012D0008A836B835D834C8385E089838B8188302F
:1012E00008F074C08A81282F30E03F832E834E811E
:1012F0005F814130510559F18E819F818230910586
:1013000034F42E813F812115310569F05CC04E8196
:101310005F814230510579F18E819F818330910543
:1013200009F43DC050C0E9E3F0E08081282F30E0AF
:101330008B81882F90E0A90102C0559547958A9529
:10134000E2F7CA018170EC81FD81808340C0E6E351
:10135000F0E08081282F30E08B81882F90E0A90178
:1013600002C0559547958A95E2F7CA018170EC81D4
:10137000FD8180832CC0E3E3F0E08081282F30E002
:101380008B81882F90E0A90102C0559547958A95D9
:10139000E2F7CA018170EC81FD81808318C0E0E32F
:1013A000F0E08081282F30E08B81882F90E0A90128
:1013B00002C0559547958A95E2F7CA018170EC8184
:1013C000FD81808304C081E0898301C01982898105
:1013D00027960FB6F894DEBF0FBECDBFCF91DF9139
:1013E0000895DF93CF9300D000D00F92CDB7DEB732
:1013F0008A836B8385E089838B81883008F072C093
:101400008A81282F30E03D832C838C819D8181301F
:10141000910549F12C813D81223031052CF48C81DC
:101420009D81009761F05BC02C813D8122303105A8
:1014300071F18C819D8183309105E9F150C0ABE35E
:10144000B0E0EBE3F0E08081482F8B81282F30E083
:1014500081E090E0022E02C0880F991F0A94E2F703
:1014600084278C9340C0A8E3B0E0E8E3F0E08081FB
:10147000482F8B81282F30E081E090E0022E02C0BF
:10148000880F991F0A94E2F784278C932CC0A5E358
:10149000B0E0E5E3F0E08081482F8B81282F30E039
:1014A00081E090E0022E02C0880F991F0A94E2F7B3
:1014B00084278C9318C0A2E3B0E0E2E3F0E08081DF
:1014C000482F8B81282F30E081E090E0022E02C06F
:1014D000880F991F0A94E2F784278C9304C081E057
:1014E000898301C0198289810F900F900F900F900E
:1014F0000F90CF91DF910895DF93CF9300D000D06C
:101500000F92CDB7DEB78A836B8385E089838A81AA
:10151000282F30E03D832C838C819D818130910583
:10152000D1F02C813D81223031052CF48C819D81BC
:10153000009761F01FC02C813D812230310581F080
:101540008C819D818330910581F014C0EAE3F0E045
:101550008B81808311C0E7E3F0E08B8180830CC036
:10156000E4E3F0E08B81808307C0E1E3F0E08B816E
:10157000808302C081E0898389810F900F900F9052
:101580000F900F90CF91DF910895DF93CF9300D00C
:1015900000D00F92CDB7DEB78A836B8385E0898355
:1015A0008A81282F30E03D832C838C819D8181307E
:1015B0009105D1F02C813D81223031052CF48C81B4
:1015C0009D81009761F01FC02C813D812230310543
:1015D00081F08C819D818330910581F014C0EBE313
:1015E000F0E08B81808311C0E8E3F0E08B818083A1
:1015F0000CC0E5E3F0E08B81808307C0E2E3F0E01C
:101600008B81808302C081E0898389810F900F9054
:101610000F900F900F90CF91DF910895DF93CF93AC
:1016200000D000D0CDB7DEB78A8385E089838A8178
:10163000282F30E03C832B838B819C818130910566
:10164000E9F02B813C81223031052CF48B819C8187
:10165000009761F02BC02B813C8122303105B1F025
:101660008B819C8183309105C9F020C0ABE3B0E051
:10167000EBE3F0E0808180958C931AC0A8E3B0E0A2
:10168000E8E3F0E0808180958C9312C0A5E3B0E0A0
:10169000E5E3F0E0808180958C930AC0A2E3B0E09E
:1016A000E2E3F0E0808180958C9302C081E0898341
:1016B00089810F900F900F900F90CF91DF91089537
:1016C000DF93CF9300D000D000D0CDB7DEB78A83B0
:1016D0007C836B8385E089838A81282F30E03E8379
:1016E0002D838D819E8181309105E1F02D813E8198
:1016F000223031052CF48D819E81009761F027C046
:101700002D813E8122303105A1F08D819E81833073
:101710009105B1F01CC0E9E3F0E08081EB81FC8130
:10172000808317C0E6E3F0E08081EB81FC81808359
:1017300010C0E3E3F0E08081EB81FC81808309C08D
:10174000E0E3F0E08081EB81FC81808302C081E0F6
:101750008983898126960FB6F894DEBF0FBECDBF70
:10176000CF91DF910895DF93CF93CDB7DEB7AFE58B
:10177000B0E0EFE5F0E0808180688C93CF91DF915D
:101780000895DF93CF93CDB7DEB7AFE5B0E0EFE5D7
:10179000F0E080818F778C93CF91DF910895DF9374
:1017A000CF93CDB7DEB7E8970FB6F894DEBF0FBE84
:1017B000CDBF82E060E041E00E943A0782E061E054
:1017C00041E00E943A0782E062E041E00E943A076D
:1017D00082E064E041E00E943A0782E065E041E097
:1017E0000E943A0782E066E041E00E943A0782E008
:1017F00067E041E00E943A0780E090E0A0E2B2E4B6
:101800008DAB9EABAFABB8AF6DA97EA98FA998ADDC
:1018100020E030E04AE753E40E941F02DC01CB01E4
:1018200089AB9AABABABBCAB69A97AA98BA99CA9D4
:1018300020E030E040E85FE30E94250488232CF498
:1018400081E090E098AB8FA73FC069A97AA98BA9E6
:101850009CA920E03FEF4FE757E40E94C50318160C
:101860004CF56DA97EA98FA998AD20E030E040E24B
:1018700051E40E941F02DC01CB01BC01CD010E949A
:101880004900DC01CB0198AB8FA70FC089E190E044
:101890009EA78DA78DA59EA50197F1F79EA78DA761
:1018A0008FA598A9019798AB8FA78FA598A90097A6
:1018B00069F714C069A97AA98BA99CA90E9449005B
:1018C000DC01CB0198AB8FA78FA598A99CA78BA70C
:1018D0008BA59CA50197F1F79CA78BA783E30E949A
:1018E000DC0D82E30E94DC0D88E20E94DC0D80E0CA
:1018F00090E0A0E8BFE38FA398A7A9A7BAA76FA11C
:1019000078A589A59AA520E030E04AE753E40E9433
:101910001F02DC01CB018BA39CA3ADA3BEA36BA1D3
:101920007CA18DA19EA120E030E040E85FE30E9411
:10193000250488232CF481E090E09AA389A33FC07A
:101940006BA17CA18DA19EA120E03FEF4FE757E462
:101950000E94C50318164CF56FA178A589A59AA514
:1019600020E030E040E251E40E941F02DC01CB01A4
:10197000BC01CD010E944900DC01CB019AA389A3DF
:101980000FC089E190E098A38F8F8F8D98A1019768
:10199000F1F798A38F8F89A19AA101979AA389A3A0
:1019A00089A19AA1009769F714C06BA17CA18DA1B0
:1019B0009EA10E944900DC01CB019AA389A389A1C1
:1019C0009AA19E8F8D8F8D8D9E8D0197F1F79E8FA1
:1019D0008D8F8EE00E94DC0D80E090E0A0E8BFE3F8
:1019E000898F9A8FAB8FBC8F698D7A8D8B8D9C8DF3
:1019F00020E030E04AE753E40E941F02DC01CB0103
:101A00008D8B9E8BAF8BB88F6D897E898F89988DDA
:101A100020E030E040E85FE30E94250488232CF4B6
:101A200081E090E09C8B8B8B3FC06D897E898F8994
:101A3000988D20E03FEF4FE757E40E94C50318164A
:101A40004CF5698D7A8D8B8D9C8D20E030E040E2E5
:101A500051E40E941F02DC01CB01BC01CD010E94B8
:101A60004900DC01CB019C8B8B8B0FC089E190E09E
:101A70009A8B898B89899A890197F1F79A8B898B3F
:101A80008B899C8901979C8B8B8B8B899C89009778
:101A900069F714C06D897E898F89988D0E944900ED
:101AA000DC01CB019C8B8B8B8B899C89988B8F87DE
:101AB0008F8598890197F1F7988B8F8781E00E9435
:101AC000DC0D80E090E0A0E0B0E48B879C87AD87E0
:101AD000BE876B857C858D859E8520E030E04AE75A
:101AE00053E40E941F02DC01CB018F839887A987F2
:101AF000BA876F81788589859A8520E030E040E853
:101B00005FE30E94250488232CF481E090E09E830B
:101B10008D833FC06F81788589859A8520E03FEF6E
:101B20004FE757E40E94C50318164CF56B857C857A
:101B30008D859E8520E030E040E251E40E941F0246
:101B4000DC01CB01BC01CD010E944900DC01CB01CD
:101B50009E838D830FC089E190E09C838B838B8172
:101B60009C810197F1F79C838B838D819E810197E6
:101B70009E838D838D819E81009769F714C06F814C
:101B8000788589859A850E944900DC01CB019E8376
:101B90008D838D819E819A83898389819A81019722
:101BA000F1F79A838983E8960FB6F894DEBF0FBEEB
:101BB000CDBFCF91DF910895DF93CF93CDB7DEB73F
:101BC0006D970FB6F894DEBF0FBECDBF8D8F82E04C
:101BD00060E040E00E944C0882E061E040E00E944A
:101BE0004C088D8D82958F70982F917082E064E003
:101BF000492F0E944C088D8D829586958770982F6D
:101C0000917082E065E0492F0E944C088D8D82958D
:101C1000869586958370982F917082E066E0492FB3
:101C20000E944C088D8D982F991F9927991F82E04B
:101C300067E0492F0E944C0882E062E041E00E9488
:101C40004C0880E090E0A0E8BFE3898F9A8FAB8FCB
:101C5000BC8F698D7A8D8B8D9C8D20E030E04AE7BA
:101C600053E40E941F02DC01CB018D8B9E8BAF8B56
:101C7000B88F6D897E898F89988D20E030E040E8AB
:101C80005FE30E94250488232CF481E090E09C8B84
:101C90008B8B3FC06D897E898F89988D20E03FEFC7
:101CA0004FE757E40E94C50318164CF5698D7A8DED
:101CB0008B8D9C8D20E030E040E251E40E941F02B9
:101CC000DC01CB01BC01CD010E944900DC01CB014C
:101CD0009C8B8B8B0FC089E190E09A8B898B8989D3
:101CE0009A890197F1F79A8B898B8B899C89019747
:101CF0009C8B8B8B8B899C89009769F714C06D89AD
:101D00007E898F89988D0E944900DC01CB019C8BD4
:101D10008B8B8B899C89988B8F878F85988901976E
:101D2000F1F7988B8F8782E062E040E00E944C08D8
:101D30008D8D982F917082E064E0492F0E944C08AD
:101D40008D8D8695982F917082E065E0492F0E94D5
:101D50004C088D8D86958695982F917082E066E06F
:101D6000492F0E944C088D8D869586958695982FD3
:101D7000917082E067E0492F0E944C0882E062E0A7
:101D800041E00E944C0880E090E0A0E8BFE38B8730
:101D90009C87AD87BE876B857C858D859E8520E081
:101DA00030E04AE753E40E941F02DC01CB018F833D
:101DB0009887A987BA876F81788589859A8520E079
:101DC00030E040E85FE30E94250488232CF481E0A2
:101DD00090E09E838D833FC06F81788589859A8549
:101DE00020E03FEF4FE757E40E94C50318164CF57B
:101DF0006B857C858D859E8520E030E040E251E456
:101E00000E941F02DC01CB01BC01CD010E944900F0
:101E1000DC01CB019E838D830FC089E190E09C8320
:101E20008B838B819C810197F1F79C838B838D81C0
:101E30009E8101979E838D838D819E81009769F796
:101E400014C06F81788589859A850E944900DC01DC
:101E5000CB019E838D838D819E819A838983898125
:101E60009A810197F1F79A83898382E062E040E0EA
:101E70000E944C086D960FB6F894DEBF0FBECDBF22
:101E8000CF91DF910895DF93CF93CDB7DEB76D97F4
:101E90000FB6F894DEBF0FBECDBF8D8F82E060E03D
:101EA00041E00E944C0882E061E040E00E944C0862
:101EB0008D8D82958F70982F917082E064E0492F0C
:101EC0000E944C088D8D829586958770982F917011
:101ED00082E065E0492F0E944C088D8D82958695A1
:101EE00086958370982F917082E066E0492F0E945A
:101EF0004C088D8D982F991F9927991F82E067E0D4
:101F0000492F0E944C0882E062E041E00E944C08A8
:101F100080E090E0A0E8BFE3898F9A8FAB8FBC8F01
:101F2000698D7A8D8B8D9C8D20E030E04AE753E4FB
:101F30000E941F02DC01CB018D8B9E8BAF8BB88F73
:101F40006D897E898F89988D20E030E040E85FE3DD
:101F50000E94250488232CF481E090E09C8B8B8BDD
:101F60003FC06D897E898F89988D20E03FEF4FE7D4
:101F700057E40E94C50318164CF5698D7A8D8B8D38
:101F80009C8D20E030E040E251E40E941F02DC0121
:101F9000CB01BC01CD010E944900DC01CB019C8B2F
:101FA0008B8B0FC089E190E09A8B898B89899A8904
:101FB0000197F1F79A8B898B8B899C8901979C8B70
:101FC0008B8B8B899C89009769F714C06D897E89FA
:101FD0008F89988D0E944900DC01CB019C8B8B8BF3
:101FE0008B899C89988B8F878F8598890197F1F7CA
:101FF000988B8F8782E062E040E00E944C088D8DD4
:10200000982F917082E064E0492F0E944C088D8DDA
:102010008695982F917082E065E0492F0E944C08C8
:102020008D8D86958695982F917082E066E0492F78
:102030000E944C088D8D869586958695982F917077
:1020400082E067E0492F0E944C0882E062E041E0B4
:102050000E944C0880E090E0A0E8BFE38B879C875B
:10206000AD87BE876B857C858D859E8520E030E0C1
:102070004AE753E40E941F02DC01CB018F8398875B
:10208000A987BA876F81788589859A8520E030E0B5
:1020900040E85FE30E94250488232CF481E090E06F
:1020A0009E838D833FC06F81788589859A8520E0E6
:1020B0003FEF4FE757E40E94C50318164CF56B85B8
:1020C0007C858D859E8520E030E040E251E40E94D1
:1020D0001F02DC01CB01BC01CD010E944900DC01E3
:1020E000CB019E838D830FC089E190E09C838B831D
:1020F0008B819C810197F1F79C838B838D819E81DD
:1021000001979E838D838D819E81009769F714C00E
:102110006F81788589859A850E944900DC01CB0111
:102120009E838D838D819E819A83898389819A8103
:102130000197F1F79A83898382E062E040E00E9490
:102140004C086D960FB6F894DEBF0FBECDBFCF9191
:10215000DF910895DF93CF9300D00F92CDB7DEB714
:102160009B838A8319820EC08981282F30E08A815F
:102170009B81FC01E20FF31F80810E94430F898144
:102180008F5F89838981282F30E08A819B81FC01C0
:10219000E20FF31F8081882339F70F900F900F9083
:1021A000CF91DF910895DF93CF9300D000D00F92AD
:1021B000CDB7DEB78A836B8319828B81803188F536
:1021C0008A81282F30E03D832C838C819D81813052
:1021D0009105C1F02C813D81223031052CF48C8198
:1021E0009D81009761F019C02C813D81223031051D
:1021F00069F08C819D818330910561F00EC08B81E7
:1022000089830BC08B81805C898307C08B818C564E
:10221000898303C08B818C528983898180680E9465
:10222000DC0D0F900F900F900F900F90CF91DF91DA
:102230000895DF93CF9300D000D00F92CDB7DEB7D3
:102240009C838B836D838D81882F90E0880F991FED
:10225000880F991F880F991F8A838A81805C0E944A
:10226000DC0D19820EC08981282F30E08B819C8182
:10227000FC01E20FF31F80810E94430F89818F5F71
:1022800089838981883078F380E80E94DC0D8D8114
:102290000E94430F0F900F900F900F900F90CF91CF
:1022A000DF9108950F931F93DF93CF93CDB7DEB7E0
:1022B000C654D0400FB6F894DEBF0FBECDBF82E04B
:1022C00060E041E00E943A0782E061E041E00E9464
:1022D0003A0782E062E041E00E943A0782E06FEF55
:1022E0000E947C0AFE01ED5BFF4F80E090E0A0E2DF
:1022F000B2E480839183A283B3838E01015C1F4F7C
:10230000FE01ED5BFF4F608171818281938120E04E
:1023100030E04AE753E40E941F02DC01CB01F801E0
:1023200080839183A283B383FE01FF9660817181D4
:102330008281938120E030E040E85FE30E94250441
:1023400088232CF481E090E09EAF8DAF46C0FE0163
:10235000FF96608171818281938120E03FEF4FE79A
:1023600057E40E94C503181664F5FE01ED5BFF4FAC
:10237000608171818281938120E030E040E251E40C
:102380000E941F02DC01CB01BC01CD010E9449006B
:10239000DC01CB019EAF8DAF0FC089E190E09CAF17
:1023A0008BAF8BAD9CAD0197F1F79CAF8BAF8DAD33
:1023B0009EAD01979EAF8DAF8DAD9EAD009769F735
:1023C00016C0FE01FF9660817181828193810E9417
:1023D0004900DC01CB019EAF8DAF8DAD9EAD9AAFB4
:1023E00089AF89AD9AAD0197F1F79AAF89AF88E3CC
:1023F0000E94D71380E090E0A0E8BFE38DAB9EABD6
:10240000AFABB8AF6DA97EA98FA998AD20E030E041
:102410004AE753E40E941F02DC01CB0189AB9AAB6F
:10242000ABABBCAB69A97AA98BA99CA920E030E031
:1024300040E85FE30E94250488232CF481E090E0CB
:1024400098AB8FA73FC069A97AA98BA99CA920E066
:102450003FEF4FE757E40E94C50318164CF56DA9EE
:102460007EA98FA998AD20E030E040E251E40E94BF
:102470001F02DC01CB01BC01CD010E944900DC013F
:10248000CB0198AB8FA70FC089E190E09EA78DA7E5
:102490008DA59EA50197F1F79EA78DA78FA598A959
:1024A000019798AB8FA78FA598A9009769F714C0DB
:1024B00069A97AA98BA99CA90E944900DC01CB01DA
:1024C00098AB8FA78FA598A99CA78BA78BA59CA538
:1024D0000197F1F79CA78BA78FE00E94D71380E0AC
:1024E00090E0A0E8BFE38FA398A7A9A7BAA76FA120
:1024F00078A589A59AA520E030E04AE753E40E9438
:102500001F02DC01CB018BA39CA3ADA3BEA36BA1D7
:102510007CA18DA19EA120E030E040E85FE30E9415
:10252000250488232CF481E090E09AA389A33FC07E
:102530006BA17CA18DA19EA120E03FEF4FE757E466
:102540000E94C50318164CF56FA178A589A59AA518
:1025500020E030E040E251E40E941F02DC01CB01A8
:10256000BC01CD010E944900DC01CB019AA389A3E3
:102570000FC089E190E098A38F8F8F8D98A101976C
:10258000F1F798A38F8F89A19AA101979AA389A3A4
:1025900089A19AA1009769F714C06BA17CA18DA1B4
:1025A0009EA10E944900DC01CB019AA389A389A1C5
:1025B0009AA19E8F8D8F8D8D9E8D0197F1F79E8FA5
:1025C0008D8F81E00E94D71380E090E0A0E0B0E41E
:1025D000898F9A8FAB8FBC8F698D7A8D8B8D9C8DF7
:1025E00020E030E04AE753E40E941F02DC01CB0107
:1025F0008D8B9E8BAF8BB88F6D897E898F89988DDF
:1026000020E030E040E85FE30E94250488232CF4BA
:1026100081E090E09C8B8B8B3FC06D897E898F8998
:10262000988D20E03FEF4FE757E40E94C50318164E
:102630004CF5698D7A8D8B8D9C8D20E030E040E2E9
:1026400051E40E941F02DC01CB01BC01CD010E94BC
:102650004900DC01CB019C8B8B8B0FC089E190E0A2
:102660009A8B898B89899A890197F1F79A8B898B43
:102670008B899C8901979C8B8B8B8B899C8900977C
:1026800069F714C06D897E898F89988D0E944900F1
:10269000DC01CB019C8B8B8B8B899C89988B8F87E2
:1026A0008F8598890197F1F7988B8F8786E00E9434
:1026B000D71380E090E0A0E8BFE38B879C87AD87CD
:1026C000BE876B857C858D859E8520E030E04AE75E
:1026D00053E40E941F02DC01CB018F839887A987F6
:1026E000BA876F81788589859A8520E030E040E857
:1026F0005FE30E94250488232CF481E090E09E8310
:102700008D833FC06F81788589859A8520E03FEF72
:102710004FE757E40E94C50318164CF56B857C857E
:102720008D859E8520E030E040E251E40E941F024A
:10273000DC01CB01BC01CD010E944900DC01CB01D1
:102740009E838D830FC089E190E09C838B838B8176
:102750009C810197F1F79C838B838D819E810197EA
:102760009E838D838D819E81009769F714C06F8150
:10277000788589859A850E944900DC01CB019E837A
:102780008D838D819E819A83898389819A81019726
:10279000F1F79A838983CA5BDF4F0FB6F894DEBFE7
:1027A0000FBECDBFCF91DF911F910F910895DF93A1
:1027B000CF93CDB7DEB76D970FB6F894DEBF0FBEDF
:1027C000CDBF8D8F82E060E040E00E944C0882E047
:1027D00061E040E00E944C0882E06D8D0E94C50AD5
:1027E00082E062E041E00E944C0880E090E0A0E8D6
:1027F000BFE3898F9A8FAB8FBC8F698D7A8D8B8D5C
:102800009C8D20E030E04AE753E40E941F02DC0187
:10281000CB018D8B9E8BAF8BB88F6D897E898F8915
:10282000988D20E030E040E85FE30E942504882393
:102830002CF481E090E09C8B8B8B3FC06D897E896E
:102840008F89988D20E03FEF4FE757E40E94C50342
:1028500018164CF5698D7A8D8B8D9C8D20E030E0BB
:1028600040E251E40E941F02DC01CB01BC01CD011A
:102870000E944900DC01CB019C8B8B8B0FC089E14E
:1028800090E09A8B898B89899A890197F1F79A8BC5
:10289000898B8B899C8901979C8B8B8B8B899C89DD
:1028A000009769F714C06D897E898F89988D0E9481
:1028B0004900DC01CB019C8B8B8B8B899C89988B8D
:1028C0008F878F8598890197F1F7988B8F8782E0A2
:1028D00062E040E00E944C0880E090E0A0E8BFE3A6
:1028E0008B879C87AD87BE876B857C858D859E8514
:1028F00020E030E04AE753E40E941F02DC01CB01F4
:102900008F839887A987BA876F81788589859A850B
:1029100020E030E040E85FE30E94250488232CF4A7
:1029200081E090E09E838D833FC06F8178858985AB
:102930009A8520E03FEF4FE757E40E94C503181641
:102940004CF56B857C858D859E8520E030E040E2EE
:1029500051E40E941F02DC01CB01BC01CD010E94A9
:102960004900DC01CB019E838D830FC089E190E09B
:102970009C838B838B819C810197F1F79C838B8354
:102980008D819E8101979E838D838D819E8100978D
:1029900069F714C06F81788589859A850E944900FE
:1029A000DC01CB019E838D838D819E819A838983F7
:1029B00089819A810197F1F79A83898382E062E0A5
:1029C00041E00E944C086D960FB6F894DEBF0FBE32
:1029D000CDBFCF91DF910895DF93CF93CDB7DEB711
:1029E0006D970FB6F894DEBF0FBECDBF8D8F82E01E
:1029F00060E041E00E944C0882E061E040E00E941B
:102A00004C0882E06D8D0E94C50A82E062E041E0E0
:102A10000E944C0880E090E0A0E8BFE3898F9A8F85
:102A2000AB8FBC8F698D7A8D8B8D9C8D20E030E0D3
:102A30004AE753E40E941F02DC01CB018D8B9E8B81
:102A4000AF8BB88F6D897E898F89988D20E030E0BB
:102A500040E85FE30E94250488232CF481E090E0A5
:102A60009C8B8B8B3FC06D897E898F89988D20E0F0
:102A70003FEF4FE757E40E94C50318164CF5698DE8
:102A80007A8D8B8D9C8D20E030E040E251E40E94F5
:102A90001F02DC01CB01BC01CD010E944900DC0119
:102AA000CB019C8B8B8B0FC089E190E09A8B898B3B
:102AB00089899A890197F1F79A8B898B8B899C89EF
:102AC00001979C8B8B8B8B899C89009769F714C02D
:102AD0006D897E898F89988D0E944900DC01CB0128
:102AE0009C8B8B8B8B899C89988B8F878F85988902
:102AF0000197F1F7988B8F8782E062E040E00E94B7
:102B00004C0880E090E0A0E8BFE38B879C87AD870E
:102B1000BE876B857C858D859E8520E030E04AE709
:102B200053E40E941F02DC01CB018F839887A987A1
:102B3000BA876F81788589859A8520E030E040E802
:102B40005FE30E94250488232CF481E090E09E83BB
:102B50008D833FC06F81788589859A8520E03FEF1E
:102B60004FE757E40E94C50318164CF56B857C852A
:102B70008D859E8520E030E040E251E40E941F02F6
:102B8000DC01CB01BC01CD010E944900DC01CB017D
:102B90009E838D830FC089E190E09C838B838B8122
:102BA0009C810197F1F79C838B838D819E81019796
:102BB0009E838D838D819E81009769F714C06F81FC
:102BC000788589859A850E944900DC01CB019E8326
:102BD0008D838D819E819A83898389819A810197D2
:102BE000F1F79A83898382E062E041E00E944C0819
:102BF0006D960FB6F894DEBF0FBECDBFCF91DF91BB
:102C00000895DF93CF9300D00F92CDB7DEB79B83AB
:102C10008A8319820EC08981282F30E08A819B81A6
:102C2000FC01E20FF31F80810E94EC1489818F5F09
:102C300089838981282F30E08A819B81FC01E20F02
:102C4000F31F8081882339F70F900F900F90CF9159
:102C5000DF910895DF93CF9300D000D000D0CDB79F
:102C6000DEB79D838C836E838E81882F90E0880FE2
:102C7000991F880F991F880F991F8B838B81805C08
:102C80000E94D7131A8216C019820EC08981282F7C
:102C900030E08C819D81FC01E20FF31F80810E9456
:102CA000EC1489818F5F89838981883078F38A81E8
:102CB0008F5F8A838A81883038F380E80E94D71337
:102CC0008E810E94EC1426960FB6F894DEBF0FBEDC
:102CD000CDBFCF91DF910895DF93CF93CDB7DEB70E
:102CE00029970FB6F894DEBF0FBECDBF99878887AE
:102CF0001B821A8288859985992354F48DE20E945B
:102D0000430F88859985909581959F4F99878887EE
:102D100088859985009719F581E08A831C821FC0F8
:102D2000888599852AE030E0B9010E94581F8B837D
:102D30008A81282F30E0CE010496FC01E20FF31FB8
:102D40008B818083888599852AE030E0B9010E94D3
:102D5000581FCB01998788878A818F5F8A838885EE
:102D600099850097E9F68A818150898311C089810C
:102D7000282F332727FD3095CE010496FC01E20F62
:102D8000F31F8081805D0E94430F89818150898378
:102D90008981882364F729960FB6F894DEBF0FBEA9
:102DA000CDBFCF91DF910895DF93CF9300D0CDB702
:102DB000DEB789836A8389816A8141E00E943A078C
:102DC0000F900F90CF91DF910895DF93CF9300D0B4
:102DD000CDB7DEB789836A8389816A8141E00E9429
:102DE0004C080F900F90CF91DF910895DF93CF9310
:102DF00000D0CDB7DEB789836A8389816A8140E0DC
:102E00000E944C080F900F90CF91DF910895DF93AF
:102E1000CF9300D0CDB7DEB789836A8389816A8179
:102E200040E00E943A070F900F90CF91DF910895F4
:102E3000DF93CF9300D000D0CDB7DEB789836A830C
:102E40005C834B832B813C8189816A81A9010E942B
:102E50005E090F900F900F900F90CF91DF91089522
:102E6000DF93CF93CDB7DEB783E065E041E00E940A
:102E70003A070E94FA198FE19EE40E94161C0E94F4
:102E80002B1ACF91DF910895DF93CF9300D000D01C
:102E9000CDB7DEB78B836C838B81882F90E0A0E069
:102EA000B0E028EE33E040E050E0BC01CD010E94EC
:102EB000391FDC01CB0124EB30E040E050E0BC01E5
:102EC000CD010E946B1FDA01C90189519C4F9A8381
:102ED000898389819A816C810E94281C0F900F90B0
:102EE0000F900F90CF91DF910895DF93CF93CDB7DF
:102EF000DEB7A3E5B0E0E3E5F0E080818F7B8C9363
:102F0000A3E5B0E0E3E5F0E08081877F8C93A9E55D
:102F1000B0E0E9E5F0E0808181608C93CF91DF91B2
:102F20000895DF93CF93CDB7DEB7A3E5B0E0E3E537
:102F3000F0E080818E7F8C93A3E5B0E0E3E5F0E0E4
:102F4000808182608C93A3E5B0E0E3E5F0E08081CE
:102F50008B7F8C93CF91DF910895DF93CF93CDB783
:102F6000DEB7A3E5B0E0E3E5F0E080818E7F8C93EF
:102F7000A3E5B0E0E3E5F0E080818D7F8C93A3E5ED
:102F8000B0E0E3E5F0E080818B7F8C93CF91DF911F
:102F90000895DF93CF930F92CDB7DEB78983ECE529
:102FA000F0E0898180830F90CF91DF910895EF92B7
:102FB000FF920F931F93DF93CF93CDB7DEB76E973A
:102FC0000FB6F894DEBF0FBECDBF698F7A8F8B8F9F
:102FD0009C8F5E8F4D8F8D8D9E8D9093B5018093CC
:102FE000B401698D7A8D8B8D9C8D20E030E04AE7AD
:102FF00054E40E941F02DC01CB018D8B9E8BAF8BB2
:10300000B88F80E090E0A0E8BFE3898B9A8BAB8B10
:10301000BC8B69897A898B899C8920E030E040E803
:1030200053E40E941F02DC01CB018D879E87AF878E
:10303000B88B6D897E898F89988D2D853E854F85CA
:1030400058890E941903DC01CB0189879A87AB87D5
:10305000BC8769857A858B859C850E944900DC0147
:10306000CB018093AC019093AD01A093AE01B093DE
:10307000AF018091AC019091AD01A091AE01B091F2
:10308000AF01BC01CD010E94A9049B01AC0169857F
:103090007A858B859C850E94C101DC01CB018D83E3
:1030A0009E83AF83B8876D817E818F81988520E074
:1030B00030E040E853E40E941F02DC01CB01BC0178
:1030C000CD010E944900DC01CB0189839A83AB8347
:1030D000BC8320E031E040E050E089819A81AB81FF
:1030E000BC8179018A01E81AF90A0A0B1B0BD80185
:1030F000C7018093B0019093B101A093B201B09346
:10310000B3010E9491176E960FB6F894DEBF0FBE02
:10311000CDBFCF91DF911F910F91FF90EF90089558
:10312000EF92FF920F931F93DF93CF93CDB7DEB74C
:10313000A0970FB6F894DEBF0FBECDBF6D8F7E8F08
:103140008F8F98A3A9E5B0E0E9E5F0E080818E7F5C
:103150008C936D8D7E8D8F8D98A120E030E04AE7B5
:1031600054E40E941F02DC01CB01898F9A8FAB8F40
:10317000BC8F80E090E0A0E8BFE38D8B9E8BAF8B8F
:10318000B88F6D897E898F89988D20E030E040E886
:1031900053E40E941F02DC01CB01898B9A8BAB8B1D
:1031A000BC8B698D7A8D8B8D9C8D29893A894B8951
:1031B0005C890E941903DC01CB018D879E87AF8754
:1031C000B88B6D857E858F8598890E944900DC01CA
:1031D000CB018093AC019093AD01A093AE01B0936D
:1031E000AF018091AC019091AD01A091AE01B09181
:1031F000AF01BC01CD010E94A9049B01AC016D850A
:103200007E858F8598890E94C101DC01CB01898769
:103210009A87AB87BC8769857A858B859C8520E0FA
:1032200030E040E853E40E941F02DC01CB01BC0106
:10323000CD010E944900DC01CB018D839E83AF83C9
:10324000B88720E031E040E050E08D819E81AF8181
:10325000B88579018A01E81AF90A0A0B1B0BD80113
:10326000C7018093B0019093B101A093B201B093D4
:10327000B3010E94911719821A821B821C821BC003
:10328000E8E5F0E08081882F90E0817090700097F1
:10329000B9F389819A81AB81BC810196A11DB11DD1
:1032A00089839A83AB83BC83A8E5B0E0E8E5F0E0CE
:1032B000808181608C932091AC013091AD0140916F
:1032C000AE015091AF0189819A81AB81BC81821797
:1032D0009307A407B507A0F20E94AD17A0960FB6FA
:1032E000F894DEBF0FBECDBFCF91DF911F910F913C
:1032F000FF90EF900895DF93CF9300D000D0CDB72B
:10330000DEB769837A838B839C830F900F900F9035
:103310000F90CF91DF9108951F920F920FB60F92E9
:1033200011242F933F934F935F936F937F938F93CA
:103330009F93AF93BF93EF93FF93DF93CF93CDB75B
:10334000DEB78091B6019091B701A091B801B0911C
:10335000B9010196A11DB11D8093B6019093B701EB
:10336000A093B801B093B9012091B6013091B70193
:103370004091B8015091B9018091AC019091AD019B
:10338000A091AE01B091AF01281739074A075B073A
:10339000F1F41092B6011092B7011092B801109298
:1033A000B901E2E5F0E08091B0019091B101A09106
:1033B000B201B091B30180838091B4019091B501C5
:1033C000009729F0E091B401F091B5010995CF91F2
:1033D000DF91FF91EF91BF91AF919F918F917F917D
:1033E0006F915F914F913F912F910F900FBE0F9072
:1033F0001F901895DF93CF93CDB7DEB7AFE4B0E061
:10340000EFE4F0E080818E7F8C93AFE4B0E0EFE4F6
:10341000F0E0808182608C93AEE4B0E0EEE4F0E016
:10342000808188608C93AEE4B0E0EEE4F0E08081CF
:1034300080618C93AFE4B0E0EFE4F0E080818F7BBB
:103440008C93AFE4B0E0EFE4F0E0808180688C938F
:10345000CF91DF910895DF93CF93CDB7DEB7AEE480
:10346000B0E0EEE4F0E080818E7F8C93AEE4B0E0DB
:10347000EEE4F0E0808182608C93AEE4B0E0EEE4B4
:10348000F0E080818B7F8C93CF91DF910895CF9274
:10349000DF92EF92FF920F931F93DF93CF93CDB7FD
:1034A000DEB727970FB6F894DEBF0FBECDBF698396
:1034B0007A838B839C834D838D81282F30E03F83DB
:1034C0002E838E819F8182309105E1F1EE81FF8113
:1034D000E330F10509F466C02E813F8121303105CA
:1034E00009F0BEC00F2EFAE4CF2EDD24F02D698145
:1034F0007A818B819C8120E030E048EC52E40E948C
:103500001903DC01CB017C018D01E6E4F0E0808150
:103510009181CC01A0E0B0E0BC01CD010E94A904E2
:103520009B01AC01C801B7010E941F02DC01CB0165
:10353000BC01CD010E944900DC01CB01F601918361
:1035400080838EC00F2EF8E4CF2EDD24F02D69810C
:103550007A818B819C8120E030E048EC52E40E942B
:103560001903DC01CB017C018D01E6E4F0E08081F0
:103570009181CC01A0E0B0E0BC01CD010E94A90482
:103580009B01AC01C801B7010E941F02DC01CB0105
:10359000BC01CD010E944900DC01CB01F601918301
:1035A00080835EC00F2EFAE4CF2EDD24F02D6981DA
:1035B0007A818B819C8120E030E048EC52E40E94CB
:1035C0001903DC01CB017C018D01E6E4F0E0808190
:1035D0009181CC01A0E0B0E0BC01CD010E94A90422
:1035E0009B01AC01C801B7010E941F02DC01CB01A5
:1035F000BC01CD010E944900DC01CB01F6019183A1
:1036000080830F2EF8E4CF2EDD24F02D69817A819E
:103610008B819C8120E030E048EC52E40E94190349
:10362000DC01CB017C018D01E6E4F0E08081918139
:10363000CC01A0E0B0E0BC01CD010E94A9049B0137
:10364000AC01C801B7010E941F02DC01CB01BC0123
:10365000CD010E944900DC01CB01F60191838083FA
:10366000AEE4B0E0EEE4F0E080818E7F8C93AEE4D7
:10367000B0E0EEE4F0E0808182608C93AEE4B0E0F4
:10368000EEE4F0E080818B7F8C9327960FB6F89460
:10369000DEBF0FBECDBFCF91DF911F910F91FF9085
:1036A000EF90DF90CF900895CF92DF92EF92FF924C
:1036B0000F931F93DF93CF9300D000D0CDB7DEB729
:1036C00069837A838B839C830F2EFAE4CF2EDD24CB
:1036D000F02D69817A818B819C8120E030E048EC7B
:1036E00052E40E941903DC01CB017C018D01E6E468
:1036F000F0E080819181CC01A0E0B0E0BC01CD017F
:103700000E94A9049B01AC01C801B7010E941F02DD
:10371000DC01CB01BC01CD010E944900DC01CB01E1
:10372000F60191838083AEE4B0E0EEE4F0E08081C6
:103730008E7F8C93AEE4B0E0EEE4F0E080818260B6
:103740008C93AEE4B0E0EEE4F0E080818B7F8C936C
:103750000F900F900F900F90CF91DF911F910F91CD
:10376000FF90EF90DF90CF900895CF92DF92EF928D
:10377000FF920F931F93DF93CF9300D000D0CDB76C
:10378000DEB769837A838B839C830F2EF8E4CF2E78
:10379000DD24F02D69817A818B819C8120E030E0ED
:1037A00048EC52E40E941903DC01CB017C018D013D
:1037B000E6E4F0E080819181CC01A0E0B0E0BC01C2
:1037C000CD010E94A9049B01AC01C801B7010E9470
:1037D0001F02DC01CB01BC01CD010E944900DC01CC
:1037E000CB01F60191838083AEE4B0E0EEE4F0E03B
:1037F00080818E7F8C93AEE4B0E0EEE4F0E08081D7
:1038000082608C93AEE4B0E0EEE4F0E080818B7FE8
:103810008C930F900F900F900F90CF91DF911F918D
:103820000F91FF90EF90DF90CF900895DF93CF93AB
:1038300000D0CDB7DEB79A838983E6E4F0E08981D2
:103840009A81918380830F900F90CF91DF9108959B
:10385000DF93CF9300D000D00F92CDB7DEB79A831D
:1038600089836B838B81282F30E03D832C838C816F
:103870009D818230910589F02C813D812330310575
:1038800099F08C819D8181309105D1F4EAE4F0E0DA
:1038900089819A819183808313C0E8E4F0E0898173
:1038A0009A81918380830CC0EAE4F0E089819A8157
:1038B00091838083E8E4F0E089819A819183808319
:1038C0000F900F900F900F900F90CF91DF91089570
:1038D000DF93CF930F92CDB7DEB7198289818068CD
:1038E000898389818F7B898389818F7E898389817F
:1038F0008F7D89838981877F89838981826089839C
:10390000898184608983AAE2B0E0EAE2F0E0808104
:103910008B7F8C93E0E4F0E089818083E9E2F0E042
:1039200083E38083AAE2B0E0EAE2F0E08081806194
:103930008C93AAE2B0E0EAE2F0E0808188608C93A8
:103940000F90CF91DF910895DF93CF930F92CDB772
:10395000DEB78983EBE2F0E08081829586958770FF
:10396000882F90E0817090700097A1F3ECE2F0E076
:10397000898180830F90CF91DF910895DF93CF935A
:1039800000D0CDB7DEB79A838983EBE2F0E0808187
:103990008823DCF7ECE2F0E08081E981FA81808322
:1039A0000F900F90CF91DF910895DF93CF9300D0C8
:1039B0000F92CDB7DEB79B838A8319828A819B8160
:1039C0000097D1F00EC08981282F30E08A819B8139
:1039D000FC01E20FF31F80810E94A41C89818F5F8C
:1039E00089838981282F30E08A819B81FC01E20F45
:1039F000F31F8081882339F70F900F900F90CF919C
:103A0000DF910895DF93CF93CDB7DEB72B970FB635
:103A1000F894DEBF0FBECDBF688779878A879B8702
:103A20001B821A8288859985AA85BB85BB2394F45D
:103A30008DE20E94A41C88859985AA85BB85B095D6
:103A4000A095909581959F4FAF4FBF4F88879987DD
:103A5000AA87BB8788859985AA85BB850097A1051C
:103A6000B10591F581E08A831C822EC088859985F5
:103A7000AA85BB852AE030E040E050E0BC01CD01E2
:103A80000E948D1FDC01CB018B838A81282F30E0BF
:103A9000CE010496FC01E20FF31F8B8180838885A1
:103AA0009985AA85BB852AE030E040E050E0BC0162
:103AB000CD010E948D1FDA01C90188879987AA87E5
:103AC000BB878A818F5F8A8388859985AA85BB8514
:103AD0000097A105B10551F68A818150898311C0F3
:103AE0008981282F332727FD3095CE010496FC01CC
:103AF000E20FF31F8081805D0E94A41C89818150A8
:103B000089838981882364F72B960FB6F894DEBFEA
:103B10000FBECDBFCF91DF910895DF93CF930F926A
:103B2000CDB7DEB719820E94681C0E94B30B0E94B9
:103B300075170E94CF0B80E064E00E94D31080E6EE
:103B400090E00E94AA1081E060E00E94D3108EE60F
:103B500090E00E94AA1082E060E00E94D31087E704
:103B600090E00E94AA1083E060E00E94D31080E8F9
:103B700090E00E94AA100E9430178AE561E00E943E
:103B8000441780E060E00E94071780E061E00E9437
:103B9000071780E062E00E94D41680E063E00E9494
:103BA000D41680E062E00E94F61680E063E00E9496
:103BB000F616CE0101960E94BE1C8981853409F556
:103BC00080E064E00E94D31080E690E00E94AA109A
:103BD00081E060E00E94D3108EE690E00E94AA107F
:103BE00082E060E00E94D31087E790E00E94AA1074
:103BF00083E060E00E94D31080E890E00E94AA1069
:103C0000FBC08981863409F580E064E00E94D3100E
:103C100080E690E00E94AA1081E060E00E94D3104C
:103C200089E890E00E94AA1082E060E00E94D31030
:103C300082E990E00E94AA1083E060E00E94D31025
:103C40008BE990E00E94AA10D7C08981813309F5E1
:103C500080E064E00E94D31080E690E00E94AA1009
:103C600081E060E00E94D31089E890E00E94AA10F1
:103C700082E060E00E94D31087E790E00E94AA10E3
:103C800083E060E00E94D31080E890E00E94AA10D8
:103C9000B3C08981823309F580E064E00E94D310CB
:103CA00080E690E00E94AA1081E060E00E94D310BC
:103CB0008EE690E00E94AA1082E060E00E94D3109D
:103CC00082E990E00E94AA1083E060E00E94D31095
:103CD00080E890E00E94AA108FC08981833309F5A3
:103CE00080E064E00E94D31080E690E00E94AA1079
:103CF00081E060E00E94D3108EE690E00E94AA105E
:103D000082E060E00E94D31087E790E00E94AA1052
:103D100083E060E00E94D3108BE990E00E94AA103B
:103D20006BC08981813409F580E064E00E94D31082
:103D300080E690E00E94AA1081E060E00E94D3102B
:103D400089E890E00E94AA1082E060E00E94D3100F
:103D500082E990E00E94AA1083E060E00E94D31004
:103D600080E890E00E94AA1047C08981823409F55A
:103D700080E064E00E94D31080E690E00E94AA10E8
:103D800081E060E00E94D31089E890E00E94AA10D0
:103D900082E060E00E94D31087E790E00E94AA10C2
:103DA00083E060E00E94D3108BE990E00E94AA10AB
:103DB00023C08981833401F580E064E00E94D31040
:103DC00080E690E00E94AA1081E060E00E94D3109B
:103DD0008EE690E00E94AA1082E060E00E94D3107C
:103DE00082E990E00E94AA1083E060E00E94D31074
:103DF0008BE990E00E94AA102AEB31E080E060E0BD
:103E0000A9010E9418172BEB31E080E061E0A901C5
:103E10000E9418178091BA01813021F08091BB0176
:103E2000813069F484EB61E00E9444172EE23FE1A7
:103E300060E070E08AE794E4A9010E94D7178091BE
:103E4000BA01882309F0B5CE8091BB01882309F01F
:103E5000B0CE8AE561E00E944417ABCEDF93CF93EA
:103E6000CDB7DEB71092BA011092BB01CF91DF91AE
:103E70000895629FD001739FF001829FE00DF11DB4
:103E8000649FE00DF11D929FF00D839FF00D749FD4
:103E9000F00D659FF00D9927729FB00DE11DF91F80
:103EA000639FB00DE11DF91FBD01CF0111240895DD
:103EB00097FB092E07260AD077FD04D049D006D0FB
:103EC00000201AF4709561957F4F0895F6F790954C
:103ED00081959F4F0895A1E21A2EAA1BBB1BFD01DD
:103EE0000DC0AA1FBB1FEE1FFF1FA217B307E407D9
:103EF000F50720F0A21BB30BE40BF50B661F771F31
:103F0000881F991F1A9469F7609570958095909510
:103F10009B01AC01BD01CF01089597FB092E052639
:103F20000ED057FD04D0D7DF0AD0001C38F45095CE
:103F30004095309521953F4F4F4F5F4F0895F6F7CD
:103F400090958095709561957F4F8F4F9F4F089505
:103F5000AA1BBB1B51E107C0AA1FBB1FA617B707AF
:103F600010F0A61BB70B881F991F5A95A9F78095CB
:103F70009095BC01CD0108952F923F924F925F9290
:103F80006F927F928F929F92AF92BF92CF92DF9269
:103F9000EF92FF920F931F93CF93DF93CDB7DEB7CE
:103FA000CA1BDB0B0FB6F894DEBF0FBECDBF099462
:103FB0002A88398848885F846E847D848C849B84B9
:103FC000AA84B984C884DF80EE80FD800C811B81C7
:103FD000AA81B981CE0FD11D0FB6F894DEBF0FBEF6
:0A3FE000CDBFED010895F894FFCF66
:103FEA00536D617274205061726B696E6700503153
:103FFA003A20467265650050323A2046726565007D
:10400A0050333A20467265650050313A2046756C45
:10401A006C0050323A2046756C6C0050333A204698
:10402A00756C6C0000000000000000000001020234
:10403A000303030304040404040404040505050536
:10404A000505050505050505050505050606060612
:10405A0006060606060606060606060606060606F6
:10406A0006060606060606060606060607070707E2
:10407A0007070707070707070707070707070707C6
:10408A0007070707070707070707070707070707B6
:10409A0007070707070707070707070707070707A6
:1040AA000707070707070707070707070808080892
:1040BA000808080808080808080808080808080876
:1040CA000808080808080808080808080808080866
:1040DA000808080808080808080808080808080856
:1040EA000808080808080808080808080808080846
:1040FA000808080808080808080808080808080836
:10410A000808080808080808080808080808080825
:10411A000808080808080808080808080808080815
:0C412A0008080808080808080808080829
:00000001FF
